:020000040000FA
:100000000C945D000C9485000C9485000C94850084
:100010000C9485000C9485000C9485000C9485004C
:100020000C9485000C9485000C9485000C9485003C
:100030000C9485000C9485000C9485000C9485002C
:100040000C94E9010C9485000C9459020C94330231
:100050000C9485000C9485000C9485000C9485000C
:100060000C9485000C9485000000000024002700FB
:100070002A0000000000250028002B0004040404CE
:100080000404040402020202020203030303030342
:10009000010204081020408001020408102001021F
:1000A00004081020000000080002010000030407FB
:1000B00000000000000000008B0211241FBECFEFE3
:1000C000D8E0DEBFCDBF11E0A0E0B1E0E2E2FBE0AE
:1000D00002C005900D92A231B107D9F721E0A2E14B
:1000E000B1E001C01D92A43EB207E1F710E0CDE5FA
:1000F000D0E004C02197FE010E948905CC35D107CC
:10010000C9F70E94E4020C948F050C940000AF9292
:10011000BF92CF92DF92EF92FF920F931F93CF93F4
:10012000DF936C017B018B01040F151FEB015E0156
:10013000AE18BF08C017D10759F06991D601ED91EB
:10014000FC910190F081E02DC6010995892B79F78A
:10015000C501DF91CF911F910F91FF90EF90DF903C
:10016000CF90BF90AF900895FC01538D448D252F03
:1001700030E0842F90E0821B930B541710F0CF9641
:10018000089501970895FC01918D828D981761F073
:10019000A28DAE0FBF2FB11D5D968C91928D9F5F8A
:1001A0009F73928F90E008958FEF9FEF0895FC0169
:1001B000918D828D981731F0828DE80FF11D858D1C
:1001C00090E008958FEF9FEF0895FC01918D228DAF
:1001D000892F90E0805C9F4F821B91098F73992734
:1001E00008958DE191E00E94E50021E0892B09F45A
:1001F00020E0822F089580E090E0892B29F00E9472
:10020000F10081110C9400000895FC01A48DA80F49
:10021000B92FB11DA35ABF4F2C91848D90E0019648
:100220008F739927848FA689B7892C93A089B18968
:100230008C91837080648C93938D848D981306C009
:100240000288F389E02D80818F7D80830895EF926D
:10025000FF920F931F93CF93DF93EC0181E0888F80
:100260009B8D8C8D98131AC0E889F989808185FF50
:1002700015C09FB7F894EE89FF896083E889F989F2
:1002800080818370806480839FBF81E090E0DF91F4
:10029000CF911F910F91FF90EF900895F62E0B8D47
:1002A00010E00F5F1F4F0F731127E02E8C8D8E1102
:1002B0000CC00FB607FCFACFE889F989808185FF69
:1002C000F5CFCE010E940501F1CFEB8DEC0FFD2F94
:1002D000F11DE35AFF4FF0829FB7F8940B8FEA8924
:1002E000FB8980818062CFCFCF93DF93EC01888D33
:1002F0008823B9F0AA89BB89E889F9898C9185FDA1
:1003000003C0808186FD0DC00FB607FCF7CF8C912E
:1003100085FFF2CF808185FFEDCFCE010E940501E0
:10032000E9CFDF91CF910895CF92DF92EF92FF92C4
:100330000F931F93CF93FC018389811109C080E043
:10034000CF911F910F91FF90EF90DF90CF90089584
:100350009FB7F8944091190150911A0160911B01C7
:1003600070911C019FBF448355836683778300810E
:100370001181228133816A017B01C01AD10AE20A0C
:10038000F30A0085118522853385C016D106E20661
:10039000F306A8F29489992371F0248535852F3FBF
:1003A0003F4F49F026853785215031093787268709
:1003B000232B09F4138A4083518362837383C28998
:1003C000CC2309F4BDCF0088F189E02D09958C2F4D
:1003D000B7CF1F920F920FB60F9211242F933F9316
:1003E0008F939F93AF93BF938091190190911A01BE
:1003F000A0911B01B0911C013091180123E0230F43
:100400002D3758F50196A11DB11D20931801809339
:10041000190190931A01A0931B01B0931C018091C4
:10042000140190911501A0911601B0911701019648
:10043000A11DB11D8093140190931501A093160185
:10044000B0931701BF91AF919F918F913F912F91E1
:100450000F900FBE0F901F90189526E8230F02965D
:10046000A11DB11DD2CF1F920F920FB60F92112472
:100470002F933F934F935F936F937F938F939F93AC
:10048000AF93BF93EF93FF938DE191E00E9405013D
:10049000FF91EF91BF91AF919F918F917F916F915C
:1004A0005F914F913F912F910F900FBE0F901F9032
:1004B00018951F920F920FB60F9211242F938F93BE
:1004C0009F93EF93FF93E0912D01F0912E01808196
:1004D000E0913301F091340182FD1BC09081809145
:1004E00036018F5F8F7320913701821741F0E091C1
:1004F0003601F0E0E35EFE4F958F80933601FF9169
:10050000EF919F918F912F910F900FBE0F901F90A1
:1005100018958081F4CFEDE1F1E01382128288EE2C
:1005200093E0A0E0B0E084839583A683B78384E062
:1005300091E09183808385EC90E09587848784ECBB
:1005400090E09787868780EC90E0918B808B81ECA0
:1005500090E0938B828B82EC90E0958B848B86EC81
:1005600090E0978B868B118E128E138E148EEFEC8B
:10057000F1E08FEF9FEF9587848717861686128AA2
:10058000138A148A10821182128213824AEF50E079
:1005900060E070E04087518762877387EAEBF1E0A3
:1005A0009587848717861686128A138A148A108282
:1005B00011821282138284EF91E0A0E0B0E0808784
:1005C0009187A287B3870895789484B5826084BDAB
:1005D00084B5816084BD85B5826085BD85B5816047
:1005E00085BD80916E00816080936E0010928100C5
:1005F0008091810082608093810080918100816080
:100600008093810080918000816080938000809140
:10061000B10084608093B1008091B00081608093CC
:10062000B00080917A00846080937A0080917A0093
:10063000826080937A0080917A00816080937A0052
:1006400080917A00806880937A001092C100CDE991
:10065000D0E0FE01249109E810E0F801849188239C
:1006600099F090E0880F991FFC01E859FF4FA59180
:10067000B491FC01EE58FF4F859194918FB7F89497
:100680009C91292B2C938FBFE0912D01F0912E018D
:1006900082E08083E0912901F0912A011082E091AB
:1006A0002B01F0912C018FEC808310923501E091A9
:1006B0003101F091320186E08083E0912F01F091C9
:1006C0003001808180618083E0912F01F0913001C1
:1006D000808188608083E0912F01F09130018081DA
:1006E00080688083E0912F01F091300180818F7DBF
:1006F00080832FB7F8948091190190911A01A091ED
:100700001B01B0911C012FBF8093CF019093D001AA
:10071000A093D101B093D2018091DB019091DC01D3
:100720009093DE018093DD0181E08093E2019FB729
:10073000F8944091190150911A0160911B01709138
:100740001C019FBF4093BA015093BB016093BC0151
:100750007093BD012091C6013091C7013093C9014A
:100760002093C8018093CD0120E4922E31EBE32E3B
:1007700030E0F32E40E0C42E40E0D42EAA24A3940F
:10078000B12C90927C0080917A00806480937A00F2
:1007900080917A0086FDFCCF60917800709179009D
:1007A000072E000C880B990B0E94670426ED3FEF83
:1007B00049EF5EE30E94CB042B013C0120E030E0D6
:1007C00040EF51E40E94600487FF49C08FEC91E044
:1007D0000E949401882359F0809112019091130195
:1007E000892B09F037C0B0921301A0921201F701D2
:1007F0009491FE018491F80134913323F9F0209112
:100800001201992351F0933009F440C0A8F59130BA
:1008100009F442C0923009F443C0E32FF0E0EE0F38
:10082000FF1FEE58FF4FA591B4919FB7F894211187
:1008300044C02C91809582238C939FBFC114D10416
:1008400009F49FCF0E94F100882309F49ACF0E94F7
:10085000000097CF1092130110921201C8CF20E030
:1008600030E040EF51E4C301B2010E94C60487FDAD
:10087000BECF8AEB91E0ACCF9730A9F09830C9F0A9
:10088000943059F6909180009F7D03C09091800034
:100890009F7790938000C1CF94B59F7794BDBDCFD3
:1008A00094B59F7DFBCF9091B0009F779093B0005F
:1008B000B4CF9091B0009F7DF9CF2C91822BBCCF0B
:1008C0000E94A20408F481E00895E89409C097FB0F
:1008D0003EF490958095709561957F4F8F4F9F4F17
:1008E0009923A9F0F92F96E9BB279395F69587955B
:1008F00077956795B795F111F8CFFAF4BB0F11F41E
:1009000060FF1BC06F5F7F4F8F4F9F4F16C08823C4
:1009100011F096E911C0772321F09EE8872F762FFA
:1009200005C0662371F096E8862F70E060E02AF03B
:100930009A95660F771F881FDAF7880F9695879527
:1009400097F90895990F0008550FAA0BE0E8FEEFFC
:1009500016161706E807F907C0F012161306E40783
:10096000F50798F0621B730B840B950B39F40A267C
:1009700061F0232B242B252B21F408950A2609F45A
:10098000A140A6958FEF811D811D08950E94A204AC
:1009900008F48FEF08950E94DE040C944F050E9426
:1009A000410538F00E94480520F0952311F00C9481
:1009B00038050C943E0511240C9483050E946005B3
:1009C00070F3959FC1F3950F50E0551F629FF001A2
:1009D000729FBB27F00DB11D639FAA27F00DB11DBB
:1009E000AA1F649F6627B00DA11D661F829F222744
:1009F000B00DA11D621F739FB00DA11D621F839FCB
:100A0000A00D611D221F749F3327A00D611D231FA0
:100A1000849F600D211D822F762F6A2F11249F57EE
:100A200050409AF0F1F088234AF0EE0FFF1FBB1FF1
:100A3000661F771F881F91505040A9F79E3F5105B0
:100A400080F00C9438050C9483055F3FE4F3983EE6
:100A5000D4F3869577956795B795F795E7959F5F5A
:100A6000C1F7FE2B880F911D9695879597F90895EC
:100A700097F99F6780E870E060E008959FEF80EC51
:100A8000089500240A9416161706180609060895F4
:100A900000240A9412161306140605060895092E5A
:100AA0000394000C11F4882352F0BB0F40F4BF2BC9
:100AB00011F460FF04C06F5F7F4F8F4F9F4F089509
:100AC00057FD9058440F551F59F05F3F71F04795FF
:100AD000880F97FB991F61F09F3F79F087950895E4
:100AE000121613061406551FF2CF4695F1DF08C003
:100AF000161617061806991FF1CF86957105610520
:100B000008940895E894BB2766277727CB0197F9C7
:100B10000895EE0FFF1F0590F491E02D0994F894CD
:100B2000FFCF0000000027018700B4007401E5003A
:040B3000C300D70027
:107E0000112484B714BE81FFF0D085E080938100F7
:107E100082E08093C00088E18093C10086E0809377
:107E2000C20080E18093C4008EE0C9D0259A86E02C
:107E300020E33CEF91E0309385002093840096BBD3
:107E4000B09BFECF1D9AA8958150A9F7CC24DD24C4
:107E500088248394B5E0AB2EA1E19A2EF3E0BF2EE7
:107E6000A2D0813461F49FD0082FAFD0023811F036
:107E7000013811F484E001C083E08DD089C08234E0
:107E800011F484E103C0853419F485E0A6D080C0E4
:107E9000853579F488D0E82EFF2485D0082F10E0AE
:107EA000102F00270E291F29000F111F8ED06801E7
:107EB0006FC0863521F484E090D080E0DECF843638
:107EC00009F040C070D06FD0082F6DD080E0C81688
:107ED00080E7D80618F4F601B7BEE895C0E0D1E017
:107EE00062D089930C17E1F7F0E0CF16F0E7DF06D8
:107EF00018F0F601B7BEE89568D007B600FCFDCFD4
:107F0000A601A0E0B1E02C9130E011968C91119780
:107F100090E0982F8827822B932B1296FA010C0160
:107F200087BEE89511244E5F5F4FF1E0A038BF0790
:107F300051F7F601A7BEE89507B600FCFDCF97BE46
:107F4000E89526C08437B1F42ED02DD0F82E2BD052
:107F50003CD0F601EF2C8F010F5F1F4F84911BD097
:107F6000EA94F801C1F70894C11CD11CFA94CF0C13
:107F7000D11C0EC0853739F428D08EE10CD085E9AC
:107F80000AD08FE07ACF813511F488E018D01DD067
:107F900080E101D065CF982F8091C00085FFFCCF94
:107FA0009093C60008958091C00087FFFCCF809118
:107FB000C00084FD01C0A8958091C6000895E0E648
:107FC000F0E098E1908380830895EDDF803219F02E
:107FD00088E0F5DFFFCF84E1DECF1F93182FE3DFCA
:107FE0001150E9F7F2DF1F91089580E0E8DFEE27F6
:047FF000FF270994CA
:027FFE00040479
:00000001FF
